:03000000020122D8
:0C012200787FE4F6D8FD75811C020169AD
:10027400020800010A0BC0F9A4B0999282F8809098
:0C028400011519010A0101170001160004
:100016001202AB120006E5096401450860030200FE
:10002600F8E50AB4011DE51670087518197516016C
:100036008011E518D39401400415188006750A024C
:10004600E4F516E50AB4021DE5167008751805757F
:1000560016018011E518D394014004151880067521
:100066000A03E4F516E50AB4031DE51670087518CB
:10007600197516018011E518D394014004151880EE
:1000860006750A04E4F516E50AB4041DE5167008BB
:100096007518057516018011E518D39401400415ED
:1000A600188006750A01E4F516E50AB4010CD2803B
:1000B600C281C282C283D284C285E50AB4020CD24E
:1000C60080C281C282C283C284D285E50AB4030C8F
:1000D600C280D281C282D283C284C285E50AB404B8
:1000E6000CC280C281D282D283C284C285AF18126A
:1000F6000257E50964024508700A12029EC290C2C0
:100106009175A0FFE50964034508600302001C120F
:0C0116000291C290C29175A0FF02001C73
:1001AE008F1CC290C29175A0FFE51C75F00A12015A
:1001BE00F3FF240BF8E6F5A0EF6002D2907FE87E05
:1001CE00031202B675A0FFC290C291E51C75F00A2B
:1001DE001201F3AFF0740B2FF8E6F5A0D2917FE881
:0501EE007E030202B6D1
:020257008F19FD
:10025900751A00751B3CE51B151BAE1A7002151AA1
:0A0269004E6007AF191201AE80ECE1
:010273002268
:0B02AB00D288D2A8D28AD2AAD2AF22F9
:03000300020215E1
:10021500C0E0E509640145087007F5087509028025
:100225000DE509640245087005F508750901D0E07A
:010235003296
:03001300020236B0
:10023600C0E0E509640145087007F5087509038003
:100246000DE509640345087005F508750901D0E058
:010256003275
:0D000600C280C281C282C283C284C2852230
:0D029100D280C281C282D283C284C2852283
:0D029E00C280C281D282C283C284D2852276
:0B02B600EF1FAC0670011E4C70F6221A
:10012E00020016E493A3F8E493A34003F68001F2D1
:10013E0008DFF48029E493A3F85407240CC8C333D2
:10014E00C4540F4420C8834004F456800146F6DFA1
:10015E00E4800B0102040810204080900274E47EBB
:10016E00019360BCA3FF543F30E509541FFEE49396
:10017E00A360010ECF54C025E060A840B8E493A35D
:10018E00FAE493A3F8E493A3C8C582C8CAC583CA88
:10019E00F0A3C8C582C8CAC583CADFE9DEE780BE40
:01029000006D
:1001F300C2D530F707B2D563F0FF05F030E70CB294
:10020300D5F4048463F0FF05F080018430D502F453
:020213000422C3
:00000001FF
